:020000040800F2
:100000003050002095030008E3420008653D0008D9
:10001000E14200086B1E0008C94B00080000000008
:10002000000000000000000000000000D5020008F1
:10003000CF2000080000000031030008114500082F
:10004000AF030008AF030008AF030008AF030008C8
:10005000AF030008AF030008D1200008AF03000879
:10006000AF030008D7200008DD200008AF03000818
:10007000FD1F0008AF030008AF030008AF0300082E
:10008000AF030008AF030008AF030008AF03000888
:100090009D1E0008AF030008AF030008E32000081E
:1000A000AF030008AF030008AF030008AF03000868
:1000B000AF030008AF030008AF030008AF03000858
:1000C000AF030008AF030008AF030008AF03000848
:1000D000AF030008094B0008AF030008154B0008E8
:1000E000AF030008AF030008AF030008AF03000828
:1000F000AF030008AF030008AF030008AF03000818
:10010000AF030008AF030008AF030008AF03000807
:10011000AF030008AF030008AF030008AF030008F7
:10012000AF030008AF030008AF030008AF030008E7
:10013000AF030008AF030008AF030008AF030008D7
:10014000A91E0008AF030008AF030008AF030008B2
:10015000AF030008AF03000809200008AF03000840
:10016000AF030008AF030008AF030008AF030008A7
:10017000AF030008AF030008AF0300080000000051
:10018000AF030008AF03000800F002F800F092F897
:100190000AA090E8000C82448344AAF10107DA45E2
:1001A00001D100F087F8AFF2090EBAE80F0013F0A2
:1001B000010F18BFFB1A43F0010318470079000034
:1001C00020790000103A24BF78C878C1FAD85207C5
:1001D00024BF30C830C144BF04680C6070470000C1
:1001E0000023002400250026103A28BF78C1FBD840
:1001F000520728BF30C148BF0B6070476E2900F01E
:100200008182702900F0C383662907F02483652961
:1002100007F02183672907F01E83612907F01D83FA
:1002200003681B0A28BF41F08001692900F02E8273
:10023000642900F02B82752900F028826F2900F0D4
:100240005083782900F08F83E92900F0EB82E429BC
:1002500000F0E882F52900F0E582EF2900F04D83F7
:10026000F82900F08E830368DB0928BF41F0800184
:10027000632901F0B780732901F0BC80E32901F004
:10028000C780F32901F0CC80002070471FB507F02C
:10029000D8FA01F01BF904000020002106F0B6FC9A
:1002A000401C60600020002106F09AFCE0601FBD49
:1002B00010B510BD01F0DCF81146FFF7E7FF05F0BF
:1002C00085FA01F0B9F903B4FFF7F2FF03BC01F0BE
:1002D000FDF900002C4B19680868B0E8F04F80F376
:1002E0000988BFF36F8F4FF0000080F311887047CB
:1002F0000000000008480068006880F308884FF09C
:10030000000080F3148862B661B6BFF34F8FBFF36D
:100310006F8F00DF00BF00BF08ED00E0DFF80C00CA
:10032000016841F470010160704700BF88ED00E092
:10033000EFF30980BFF36F8F134B1A681EF0100F95
:1003400008BF20ED108A20E9F04F106009B44FF08B
:10035000500080F31188BFF34F8FBFF36F8F06F00B
:1003600053FA4FF0000080F3118809BC196808683F
:10037000B0E8F04F1EF0100F08BFB0EC108A80F309
:100380000988BFF36F8F704720000020EFF30580CE
:10039000704700000948804709480047FEE7FEE72C
:1003A000FEE7FEE7FEE7FEE7FEE7FEE7FEE7FEE725
:1003B00004480549054A064B70470000BD45000842
:1003C00089010008304A002030500020304C0020C5
:1003D000304C002053EA020C00F069802DE9F04B0C
:1003E0004FF00006002B1FBFB3FA83F503FA05F4A4
:1003F00024FA05F65E4012BF1643B2FA82F502FAFD
:1004000005F4C5F120051EBF22FA05FC44EA0C04E0
:10041000203556EA044C4FEA144418BF641C4FF0D0
:1004200000084FF00009904271EB030C39D300290A
:1004300019BFB1FA81F701FA07F6B0FA80F700FAAE
:1004400007F6C7F120071EBF20FA07FC46EA0C0694
:100450002037B6FBF4FCA7EB0507103F07F01F0B96
:10046000CBF120060CFA0BFB2CFA06F644BFB34680
:100470000026202FA4BF5E464FF0000B5BEA060C5F
:1004800008BF4FF0010B19EB0B09ABFB027C48EBEB
:100490000608C01B06FB02CC0BFB03CC71EB0C0166
:1004A000C1E70B46024641464846BDE8F08B13B50E
:1004B0004FF000004FF00001AFF30080BDE81C409A
:1004C000704700001CB50C46064B7B446946009003
:1004D000204600F030F904460020694600F03EF95D
:1004E00020461CBD8F02000010B5203AC0F00B80E2
:1004F000B1E81850203AA0E81850B1E81850A0E828
:100500001850BFF4F5AF5FEA027C24BFB1E8185081
:10051000A0E8185044BF18C918C0BDE810405FEAF1
:10052000827C24BF51F8043B40F8043B08BF70476D
:10053000D20728BF31F8023B48BF11F8012B28BF72
:1005400020F8023B48BF00F8012B704702F0FF0380
:1005500043EA032242EA024200F0EABA4FF0000204
:1005600000B5134694469646203922BFA0E80C50A9
:10057000A0E80C50B1F12001BFF4F7AF090728BF84
:10058000A0E80C5048BF0CC05DF804EB890028BF00
:1005900040F8042B08BF704748BF20F8022B11F029
:1005A000804F18BF00F8012B7047704770477047A5
:1005B00010B500F0DDFA006810BD10B5044600F07B
:1005C000D7FA046010BD70B5044685690068C1069D
:1005D00001D5302600E02026C00707D070BDD4E941
:1005E000012130469047206A401C20626D1EF6D5DE
:1005F00070BD70B5044685690078C00707D170BD2D
:10060000D4E9012120209047206A401C20626D1E01
:10061000F6D570BD09684A0501D540B27047C905D5
:10062000FCD500B2704709684A0501D5C0B27047D1
:10063000C905FCD580B2704770B50C460546012A45
:1006400005D02878800600D5EA69002302E001235E
:1006500005E05B1C934202D2E05C0028F9D1A86956
:10066000E618C01AA861286A184428622846FFF7CD
:10067000AAFF04E0D5E9012114F8010B9047B44228
:10068000F8D32846FFF7B5FF70BD00002DE9F04113
:100690000646002410687529314616A510D0FFF7CC
:1006A000B9FF002802DA404213A507E031688A0743
:1006B00001D512A502E0490704D511A5012401E0E6
:1006C000FFF7B1FF00210A2206F1240709E0B0FB81
:1006D000F2FCB0FBF2F302FB1C00303078541846F9
:1006E000491C0028F3D123462A463046BDE8F04194
:1006F00000F087BA000000002D0000002B00000071
:100700002000000011680268006A530501D50870D6
:100710000AE0D30501D5088006E0130603D5C21709
:10072000C1E9000200E008600120704701694A1C2D
:1007300002610878704700B58FB0CDE90131002122
:10074000059105497944CDE903101146684600F04A
:1007500029F90FB000BD0000E5FFFFFF0A6802F8AD
:10076000010B0A60704700002DE9FF5F15468A46BD
:100770000446DFF8AC80F8440027D8E900103E4674
:10078000CDE9001010E03AF816106A4602A800F011
:100790004BFE411C07D02178890603D5E269391840
:1007A00091420DD80744761C2078800602D5E06976
:1007B000B84205DDAE42E6DB3AF816000028E2D189
:1007C000A069C01BA0612046FFF7FDFED8E900101C
:1007D000CDE90010002017E03AF818106A4602A888
:1007E00000F022FEB0F1FF3F81460BD000250DF155
:1007F000080B05E0D4E901211BF8050090476D1CAA
:100800004D45F7D308F10100B0428046E4DB206A91
:10081000384420622046FFF7ECFEBDE8FF9F000051
:100820000E7200002DE9F0418046D21D22F0070231
:100830000025D2E90002F52915A614D0011E72F197
:10084000000106DA0023D0EB030063EB020211A6DD
:1008500008E0D8F800108B0701D50FA602E0490781
:1008600001D50EA601251146002408F1240704E055
:1008700000F082F930323A55641C50EA0102F7D197
:100880002B46324621464046BDE8F04100F0B9B95A
:10089000000000002D0000002B00000020000000E0
:1008A00030B4002100F1240408E002F00705D2086A
:1008B000303542EA4372DB086554491C52EA0305AD
:1008C000F3D10468002310A2250707D5A40600D49D
:1008D00021B1C46901230DA2641EC46130BC00F0C3
:1008E00090B910B5044621461068FFF79CFE0246F9
:1008F0002046BDE810400023D2E7D21D22F00701B8
:10090000D1E90023CCE70000000000003000000027
:10091000F0B40D460188090502D5214C7C4402E063
:100920001F4C7C440E34002100F1240608E002F044
:100930000F071209E75D42EA03721B097754491C4D
:1009400052EA0307F3D102780023120704D5702D71
:1009500006D009B1022311342246F0BC00F051B98F
:1009600001231034F8E770B504460D46214610689F
:10097000FFF759FE024629462046BDE87040002395
:10098000C6E7D21D22F00703D3E90023C0E70368BE
:10099000126843F0200303600823C3610023B7E714
:1009A000707000002DE9F05F894604464FF0000AA0
:1009B000DFF874B1FB44C0F820A02046E168884706
:1009C000002874D0252806D0D4E901219047206A58
:1009D000401C2062F1E700265F462046E168884718
:1009E0002028054607DB312D05D2781910F8200C98
:1009F00008B10643F1E7B00701D526F00406C4F8B4
:100A00001CA00027C4F818A02A2D09D0284604F0FD
:100A1000E3FD38B304EB8708303DC8F8185019E0FF
:100A200059F8041B204604EB87029161E16888476E
:100A3000012F054618D1E069002820DA26F02006AB
:100A40001DE0D8F8180000EB800005EB40003038BE
:100A5000C8F818002046E1688847054604F0BCFD48
:100A60000028EED1012F0AD02E2D08D12046E168B2
:100A700088477F1C0546022F46F02006C4DBA0698C
:100A8000002803DA404246F00106A061F00701D0D9
:100A900026F010066C2D0BD0682D09D04C2D39D0C6
:100AA0006A2D35D0742D35D07A2D33D016E038E04C
:100AB000E1682F4620468847B842054609D16C2F89
:100AC00026D04FF48060E1680643204688470546FB
:100AD00004E06C2F1AD04FF4807006430DB3A5F1DB
:100AE0004100192802D8203546F400664A462946B6
:100AF000204626604E46FFF781FB80B101280BD0CF
:100B0000F61D26F0070000F1080956E74020E4E74B
:100B10008020D8E70020D6E706F104094DE72846F3
:100B200052E7206ABDE8F09F007000004FF000021D
:100B30000429C0F0128010F0030C3FF411ADCCF189
:100B4000040CBCF1020F18BF00F8012BA8BF20F85D
:100B5000022BA1EB0C01FFF703BD5FEAC17C24BFB0
:100B600000F8012B00F8012B48BF00F8012B70475B
:100B700000487047CC49002030B5B0F10A024FEA76
:100B8000900E71F100034EEA817EB0EB0E0061EB36
:100B900091014FEA101E4EEA017E10EB0E0041EB70
:100BA00011114FEA102E4EEA016E10EB0E0041EBD0
:100BB00011214FEA104E4EEA014E10EB0E0041EBB0
:100BC0001141401841F100014FEAD00040EA417064
:100BD0004FEAD10110EB80054FEA810444EA90749A
:100BE00044EB01046D1944EB0404521BA3414FF084
:100BF000000348BF0A3200D530BD401C41F100015E
:100C000030BD2DE9F0470D4699469246044600F165
:100C100024080168880604D5E06921F010012160EC
:100C200000E00120A84201DD471B00E00027A16988
:100C30007A1902EB0900081AA0612078C00602D4D4
:100C40002046FFF7C0FC002608E0D4E901211AF88D
:100C500006009047206A401C761C20624E45F4DB5B
:100C60002078C0060AD52046FFF7ADFC06E0D4E99F
:100C7000012130209047206A401C2062381EA7F1D5
:100C80000107F4DC07E0D4E9012118F805009047DA
:100C9000206A401C2062281EA5F10105F3DC2046D5
:100CA000FFF7A7FC2078000602D50220BDE8F087F8
:100CB0000120FBE770472DE9FF4F0C461E464FF021
:100CC000FF378BB0D2E90001DDF860800A908A46D8
:100CD000C1F30A5505B93D46002108464FF0000012
:100CE000BAF1000F00F4400005DA00EB80004FF489
:100CF000400101EA50004FEA9059B9F1010F00DDBF
:100D0000B9460A9850EA4A000ED044F61050A5F2AF
:100D1000FF3545432F14B8F1000F1ED07542291E30
:100D20001EDDC9F100021CE0B8F1010F4FF0000018
:100D300001D0302103E0F24305E02154401CB042D1
:100D4000FBDB30460022002121540B99C1F80880BA
:100D5000C1E900200FB0BDE8F08FBD1B6D1CDEE7C0
:100D60004A4600DA694206A800F0F4FB06AB93E8B5
:100D7000070003AB83E8070050460A9900F0ADFC7A
:100D80008DE80700A0F500501F3800900398002D53
:100D90000ADD42F21F014A460844002303A90390DA
:100DA000684600F016FF09E0A0F500504A461F38DB
:100DB000002303A90390684600F020FF8DE8070098
:100DC0000004000C03D04FF0FF30410800E0104653
:100DD000B8F1000F03D00022009215461EE0751EE8
:100DE00005D4FFF7C9FE303262556D1EF9D5B34602
:100DF0000122084302D000227F1C04E02078302822
:100E000001D100227F1E002A099784D01DE0112DF8
:100E100007DAFFF7B1FE303262556D1C50EA01026D
:100E2000F5D1084302D00098C8B10EE00021681E39
:100E300005E0235C625C63542254401E491C8142DD
:100E4000F7DBAB46A81B401E0990002004F80B00FE
:100E50000B98099AC0F80880C0E9002B7AE71126A0
:100E60004FF0000857E72DE9F04F88460446D21DA1
:100E700022F0070191B0D1E90001CDE90A0103F0A8
:100E8000A4FE02460B98C00F01D02D2007E0206879
:100E9000810701D52B2002E0202101EAC000032AAE
:100EA000099001D0072A05DB03464146204600F0A1
:100EB00011FB0BE12078800601D5E06900E00620F7
:100EC000B8F1650F814606D0B8F1660F18D0B8F1B9
:100ED000670F70D131E00020B9F1110F009001DBF4
:100EE000112301E009F101030AAA01A90CA8FFF7E7
:100EF000E2FEDDE90C70002609F10105834647E0BA
:100F000001204B4600904FF000470AAA01A90CA807
:100F1000FFF7D1FEDDE90DB00C995D46002610B952
:100F200009F101000D18B9EB050003D4C0F1FF363B
:100F300009F10105A5EB09002BE0B9F1010F01DA78
:100F40004FF001090020B9F1110F0090484601DD72
:100F5000112300E003460AAA01A90CA8FFF7ABFE83
:100F6000DDE90C704D4600268346207800070AD440
:100F7000AB4500DA5D4601A8012D04DD411911F8E9
:100F8000011C302907D04F4502DA17F1040F04DAAB
:100F9000012082460FE06D1EEEE7002F02DCED1B04
:100FA0003E4403E0781CA84200DD7D1CB81B00F124
:100FB000010A4FF000472078000703D4AA4501DB5F
:100FC0004FF0FF3A0021B7F1004F0DF143088DF8C3
:100FD000431024D002202B23002F01DA7F422D233F
:100FE0000A21021EA0F1010000DC5FB197FBF1FCB9
:100FF00097FBF1F201FB1C7C17460CF1300C08F852
:1010000001CDEEE7A8F1010003702188090501D5A3
:10101000452100E06521A0F1010800F8011C0998B4
:101020000FA9A1EB0807FF1D00B10120411901EB39
:10103000EA70A1693844081A401EA0612078C006F1
:1010400002D42046FFF7BFFA099828B1D4E901215C
:101050009047206A401C20622078C00622D5204696
:10106000FFF7B1FA1EE0002E04DBB34502DD01A854
:10107000805D00E03020D4E901219047206A401CC7
:101080002062761CAAF101005FEA000A0AD100F092
:101090001DFAC0680168405CD4E901219047206ACC
:1010A000401C2062281EA5F10105DCDC07E0D4E924
:1010B000012118F8010B9047206A401C2062381E5D
:1010C000A7F10107F3DC2046FFF793FA032011B0E4
:1010D00041E600002DE9F04F04460D46D21D22F0F6
:1010E000070089B0D0E900974846394603F06DFD06
:1010F0000246F80F01D02D2307E02068810701D5B3
:101100002B2302E0202101EAC0038DF820300BB12F
:10111000012000E00020032A824601D0072A04DBD8
:101120002946204600F0D6F93FE12078800601D418
:101130000D2500E0E569C7F30A560D2D49DA0021B7
:101140004FEA175B08464FF00000002F00F4400004
:1011500007DA00EB80004FF4400100EBD07001EAA9
:1011600060008115012901DD4FF0FF3100224FEAB7
:10117000850CBCF1180F06D31346ACF118004FF0E4
:101180008052C24003E04FF4801323FA0CF30CF1B9
:101190000C0CBCF1200F04D3ACF1200C09FA0CF0BC
:1011A00001E007FA0CF000294FF0004801DD18B902
:1011B0000FE00ED140450CD319EB02095F4121B974
:1011C000404502D19F4329EA0209BBEB175F00D0DB
:1011D000761C2088000502D57B48784402E07A48D6
:1011E0007844193808AA302302F80A30037C0AF13F
:1011F0000101002E0AF1020A53546A4602DC4FF044
:10120000300101E04FF031014FF001088DF800107E
:1012100002D0A6F2FF3603E059EA470100D06B4E38
:10122000002D02DC2178090704D54FF002082E2199
:101230008DF80110C44600210BE0C7F303433F01C2
:10124000C35C491C6D1E02F80830052908F101082D
:1012500001DA002DF1DC00210CE000EB1973491CD0
:101260001B786D1E082902F808304FEA091908F1A9
:10127000010801DA002DF0DC21688B0602D516E0AA
:10128000A8F10108E04505DD02EB080313F8013C75
:10129000302BF5D0B8F1000F09DD02EB080313F88D
:1012A000013C2E2B03D1090701D4A8F10108002D20
:1012B00005DD3E2102F808106D1E08F10108407C92
:1012C000002E02F8080008F1010804DA2D20764209
:1012D00002F8080002E02B2002F808000A214FF46F
:1012E0007A70864208F101080BDB96FBF0F330338D
:1012F00002F8083096FBF0F308F1010800FB1366D2
:1013000001E0642E0CDB642096FBF0F3303302F82E
:10131000083096FBF0F308F1010800FB136601E0CA
:101320000A2E06DB96FBF1F0303002F8080008F1D7
:10133000010896FBF1F001FB1060303002F8080064
:10134000A16908F1010808EB050202EB0A00081A7E
:10135000A0612078C00602D42046FFF734F9216A44
:1013600008AE01EB0A00206204E0D4E9012116F87E
:10137000010B9047BAF1010AF7D22078C00602D5D6
:101380002046FFF720F96E4609E016F8010B3E28CB
:101390000FD0D4E901219047206A401C2062B8F1A7
:1013A0000108F2D22046FFF724F909B00320BDE876
:1013B000F08F206A2844206203E0D4E90121302024
:1013C00090476D1EEBD3F8E70D68000002FCFFFFAD
:1013D00010B5436913B1AFF3008001E0FFF72CF9BA
:1013E000012010BD127800F124010A7000224A7019
:1013F0000122EDE711684FF0FF32E9E710B54369CC
:1014000013B1AFF3008001E0FFF7AEF9012010BD8A
:10141000128800F1240182840022C2840122EDE7B7
:1014200011684FF0FF32E9E770B516460C460546E5
:1014300000F044F8036893F80101012806D0FF2C5E
:101440000FD8185D68B101202C7070BDD3F807016A
:101450003246214603F2071303442846BDE8704094
:1014600018474FF0FF3070BD00487047CC4900204E
:101470007546FFF7F9FFAE4605006946534620F072
:101480000700854618B020B5FEF792FFBDE8204062
:101490004FF000064FF000074FF000084FF0000B30
:1014A00021F00701AC46ACE8C009ACE8C009ACE8E3
:1014B000C009ACE8C0098D467047000010B500F0C7
:1014C00005F8001D10BD00BF4557000000487047DB
:1014D000EC4900202DE9F0411F460446032601682F
:1014E000072A01F4006004DB08B116A505E016A583
:1014F00003E008B115A500E015A521F0100020605B
:10150000A069C01EA0610FB1401EA0612046FFF778
:101510005AF84FB1D4E9012138469047206A401C5F
:101520002062C01C206206E0206AFAE7D4E90121AB
:1015300015F8010B9047761EF8D22046FFF759F8B0
:10154000BDE8F0814E414E006E616E00494E46008E
:10155000696E66002DE9F047814616468AB0354827
:1015600078440DC88DE80D0032487844801C03ACE7
:101570000DC884E80D0041F69B300844372190FBEC
:10158000F1F290FBF1F5A5F1800501FB12041B3C83
:1015900002D56442012000E00020DFF898A08046D8
:1015A0000027FA44AAF1BE0A0EE0E0070AD032464C
:1015B000684607EB470101230AEB810100F01EFB9F
:1015C0008DE8070064107F1C002CEED1194F7F447A
:1015D000AE3F19E0E80715D007EB04100DF1180A2B
:1015E00090E80E008AE80E00C068F04201D1981918
:1015F00008903246012306A903A800F0FFFA03ABC6
:1016000083E807006D10641C002DE3D14FF0010347
:1016100032466946B8F1000F03A802D000F0D9FAAB
:1016200001E000F0EBFAC9E90001C9F808200AB0AE
:10163000BDE8F0871865000010B50446AFF30080E0
:101640002046BDE81040FEF73EBE00004FF0013CD2
:1016500050F8042B51F8043B9A4221D1A2EB0C0321
:10166000934313EACC1317D150F8042B51F8043BE1
:101670009A4215D1A2EB0C03934313EACC130BD17E
:1016800050F8042B51F8043B9A4209D1A2EB0C0309
:10169000934313EACC13DBD04FF00000704700BF38
:1016A000D01A01BAB1FA81F101F0180122FA01F061
:1016B000CB40C1F12001DBB2C0B2C01A2CFA01F359
:1016C000D11A914311EAC311E6D17047014918209C
:1016D000ABBEFEE72600020070475FEA400C08BF81
:1016E00091F0000F4FEA8C234FEAC12243EA515197
:1016F0004FEA1C5018BF00F5F0404FEA300018BF09
:1017000041F000415FEA6C5C00F02980BCF1FF3FD2
:1017100008BF40F080407047130C06BF12044FF022
:10172000100C4FF0000C130E04BF12020CF1080C49
:10173000130F04BF12010CF1040C930F04BF9200AD
:101740000CF1020CD30F04BF52000CF1010C114636
:101750004FF00002A0F11F00A0EB0C00704711F049
:10176000004F08BF704731F000413FF4D5AF0B0C7C
:1017700006BF09044FF0100C4FF0000C0B0E04BF15
:1017800009020CF1080C0B0F04BF09010CF1040C49
:101790008B0F04BF89000CF1020CCB0F04BF490072
:1017A0000CF1010CCCF12003A0EB0C0022FA03F3A6
:1017B00002FA0CF241EA030100F10100704720F047
:1017C0007F4C80EA030023F07F47ACEB070303F56F
:1017D0007C5300F0004003F1FF032DE980494FEAFC
:1017E000154B09B44FEA144325EA0B4E24EA03488B
:1017F0000FF2042606EB132749083E785FEA32020F
:1018000003FB0667C7F5000707FB06F64FEA5437E8
:101810004FEAD64606F1020607FB066CCCF1005CE7
:101820004FEA1C472CEA074C07FB06F40CFB06F5B5
:1018300004EB15464FEA961634BF00204FF00040E7
:101840004FEAD13706FB07FC4FEA1C4C0CFB0BF7A9
:10185000D21B03FB0CF761EB07010CFB0EF7B0EB9F
:10186000074072EB17420CFB08F734BFA2EB0742AC
:10187000B2EB074261EB17414FEA0C444FEA910784
:1018800006FB07FC4FEA1C4C0CFB0BF7B0EBC74008
:1018900072EB573203FB0CF734BFA2EBC742B2EB3B
:1018A000C74261EB57310CFB0EF7B0EBC70072EB90
:1018B00057720CFB08F734BFA2EBC702B2EBC702AA
:1018C00061EB5771039F4FEA816141EA921104EB8A
:1018D000CC044FEAD1374FEA826206FB07FC42EAAA
:1018E00090124FEA80604FEA1C4C0CFB0BF7D21BA6
:1018F00003FB0CF761EB07010CFB0EF7B0EB0740A5
:1019000072EB17420CFB08F734BFA2EB0742B2EBB5
:10191000074261EB17414FEA8C554FEA910704EB00
:101920009C2406FB07FC4FEA1C4C0CFB0BF7B0EBAE
:10193000C74072EB573203FB0CF734BFA2EBC74230
:10194000B2EBC74261EB57310CFB0EF7B0EBC700AF
:1019500072EB57720CFB08F734BFA2EBC702B2EB75
:10196000C70261EB577115EB4C254FEA816141EAE3
:1019700092114FEA82624FEAD13742EA901206FB97
:1019800007FC44F100044FEA80604FEA1C4C0CFB5A
:101990000BF7D21B03FB0CF761EB07010CFB0EF7F7
:1019A000B0EB074072EB17420CFB08F734BFA2EB19
:1019B0000742B2EB074261EB174115EB1C154FEAEA
:1019C000813141EA92414FEA823242EA90424FEA43
:1019D00080304FEA0C7644F1000448EA03434EEAB3
:1019E0000B484FF0000EB2EB080C71EB030724BF5D
:1019F000624639464EEB0E0E4FF0000B0018524176
:101A000049414BEB0B0BB2EB080C71EB03077BF17D
:101A1000000B24BF624639464EEB0E0E4FF0000B12
:101A20000018524149414BEB0B0BB2EB080C71EB28
:101A300003077BF1000B24BF624639464EEB0E0EC6
:101A400051EA020718BF46F0010616EB0E7655F173
:101A5000000254F1000103D5BDE88901BDE800880A
:101A6000BDE88901BDE80048B619524141EB0101CA
:101A7000A3F10103704780807F7E7D7C7B7A79783B
:101A8000777676757473727171706F6E6E6D6C6C43
:101A90006B6A6A69686867666665646463636261E5
:101AA0006160605F5F5E5E5D5D5C5C5B5B5A5A5966
:101AB00059585857575656555555545453535252D2
:101AC0005251515050504F4F4F4E4E4D4D4D4C4C2A
:101AD0004C4B4B4B4A4A4A49494948484847474773
:101AE00047464646454545444444444343434342B0
:101AF000424242414141002B9C4630D477002BD0DA
:101B00001CB54FEA370703B44FF010004FF0100137
:101B1000BAF1000F06D0BCF1000FDCBF40F00800A6
:101B200040F008014FF000000FBCBDE810400BF181
:101B3000010BBBF1010F08BF5FEA170722BF12F1CB
:101B4000010211F101014FF0004143F1000300F0E7
:101B5000004043EA00007047F9D35708D0E746EA4F
:101B6000064613F1400F4FEA16461FDD13F1200F12
:101B7000DFBF16430A46002120335B42BED0C3F1CB
:101B8000200746EA064602FA07F74FEA164646EAF3
:101B90000706C3F1200722FA03F201FA07F721FA38
:101BA00003F14FF0000342EA0702A7E746EA020604
:101BB00046EA06464FEA164646EA0106BCBF46EA32
:101BC0000646360C4FF000034FF000024FF00001C4
:101BD00094E72DE9804C9A46934670B491E838001A
:101BE00007C831EA400C48BF34EA430C03D5FFF77D
:101BF000E6FDFFF780FFF0BCBDE8008C2DE9804CCE
:101C00009A46934670B491E8380007C810F0804FA8
:101C100008BF13F0804F03D100F005F8FFF76BFF0A
:101C2000F0BCBDE8008C20F07F4780EA030023F081
:101C30007F4C07EB0C03A3F57C5300F00040A3F1AD
:101C4000FE0392F0000F00F0B38095F0000F00F05B
:101C500077802DE901494FEA11404FEA144621EA05
:101C6000004800FB06FC24EA064708FB06F607FBD3
:101C700008F800FB07F718EB06484CEB164C4FEA48
:101C8000124B18EB07484FEA15464CEB174022EA77
:101C90000B4E0BFB06FC25EA06470EFB06F607FB80
:101CA0000EFE0BFB07F71EEB064E4CEB164C4FF0EF
:101CB00000061EEB074E4CEB174B18EB0B0840F1E0
:101CC000000018EB0E0B58EB000840F100008F1AD3
:101CD0004FF000013CBFC943661B14BFB5EB040CB9
:101CE00000213CBFC943F61B4FEA17444EEA8E0E53
:101CF00027EA04454FEA1C4704FB07622CEA074C1D
:101D000005FB07F70CFB05F604FB0CFC16EB07467E
:101D100042EB174216EB0C4642EB1C421BEB06064D
:101D200058EB0202414146EA9E0601D5BDE8018911
:101D3000B619524141EB0101A3F10103BDE801894C
:101D40004FEA14454FEA114724EA054621EA074CB9
:101D500005FB07F406FB07F70CFB06F105FB0CFC83
:101D600011EB074144EB17444FEA124711EB0C41CA
:101D700044EB1C4422EA074C05FB07F206FB07F77D
:101D80000CFB06F605FB0CFC16EB074642EB174274
:101D900016EB0C4642EB1C456A1854F1000148BF93
:101DA0007047B619524141EB0101A3F1010370479D
:101DB00095F0000F37D04FEA11424FEA144721EA5D
:101DC000024624EA074C02FB07F106FB07F70CFB6F
:101DD00006F402FB0CFC14EB074441EB17414FEAFD
:101DE000154714EB0C4441EB1C4125EA074C02FB60
:101DF00007F506FB07F70CFB06F602FB0CFC16EBDF
:101E0000074645EB174516EB0C4645EB1C421219ED
:101E100051F1000148BF7047B619524141EB010131
:101E2000A3F1010370474FEA14454FEA114724EA32
:101E3000054621EA074C05FB07F106FB07F70CFBFB
:101E400006F24FF0000605FB0CFC12EB074241EBDB
:101E5000174112EB0C4251EB1C4148BF70479218DE
:101E600041EB0101A3F101037047FEE730B5D378E0
:101E70009478957944EA0323547844EA0323147848
:101E800044EA0323D47945EA04245579127945EAD2
:101E9000042442EA042203600A6030BD014800F0D5
:101EA00096BA00000C030020014800F090BA000030
:101EB0003403002038B50E4C4FF400752560002522
:101EC000A560E560082525610A4C050A257060704B
:101ED000080AA070E170100A20716271180AA071DE
:101EE000E3716B4622460249034800F011F938BD00
:101EF000844400209E0000200C03002038B50E4CC6
:101F000040F2FF1525600025A560E56008252561E4
:101F10000A4C050A25706070080AA070E170100A6A
:101F200020716271180AA071E3716B462246024962
:101F3000034800F0EDF838BD6C4400209600002006
:101F400034030020114808B540F20131016000213E
:101F50008160C160082101610D490E480A88130A99
:101F6000037042704A88130A8370C2708A88130A09
:101F700003714271C9886B460A0A8271C1710246B7
:101F80000249054800F0C4F808BD00009C44002048
:101F90006C490020A60000200C03002038B5124830
:101FA00040F202310822016000218160C0E9031281
:101FB0000E4A0F4813891C0A04704370937A837089
:101FC000D27AC2700B4A6B4692ED190A0171BCEECF
:101FD000C00A10EE102A42718171C1710246024995
:101FE000054800F095F838BDB44400206C49002045
:101FF000AE000020CC4800200C030020014800F077
:1020000005BD0000DC040020014800F0FFBC00001A
:102010007C04002001681823CAB2103AB2FBF3F224
:10202000054B6FF30901032A9B5CC36500D9091DA9
:102030008165084670470000B478000810B5014675
:1020400000208B698A6A4FF0C07453B1B3F5005F0A
:1020500015D072B1012A0CD0022A0AD0032A09D164
:1020600004E01AB1012A06D0022A03D1C96AC901C3
:1020700000D5012010BDC96AA142FAD010BD002AC6
:10208000F7D0012AF2D0022AF3D0032AF3D010BDF0
:1020900030B50468256825F48025256004686360F0
:1020A0008368402B036803D099600068C26030BD2C
:1020B0009A600068C16030BD022003F08DFEFFF71A
:1020C00041FF022003F088FEFFF768FFF4E7704746
:1020D000012000F00DBE082000F00ABE102000F024
:1020E00007BE202000F004BE72B6FEE790F8202064
:1020F000012A07D0022A05D0416A41F480214162B9
:1021000001207047006842690A434261002070471D
:10211000F0B590F820500468A468012D05D0022D78
:1021200003D0416A41F480214DE014F0406F01D1A9
:10213000E50045D5C4F301640125A5401D608D6807
:102140004FF4C0739DB1CE6835434E6845EAC6056D
:10215000066803EB0417F5514FF4C275076805EBE9
:1021600004150E697E51097D012905D009E00E880C
:10217000CD6845EA4655EBE701684E5946F480764E
:102180004E511179D2F805504FF4C67641EA052137
:10219000056806EB0416A9511178D2F801204FF416
:1021A000C47541EA0221026805EB0415515100682B
:1021B00003EB0411425842F0010242500020F0BDEE
:1021C000416A41F4001141620120F0BD10B590F860
:1021D0002020012A07D0022A05D0416A41F480213B
:1021E0004162012010BD3B48D0F8002242F00102BC
:1021F000C0F80022D0F8002222F47C52C0F800225D
:10220000D0F800224B6A42EA0322C0F800220A7D7D
:1022100002F01F0301229A40D0F81C329343C0F809
:102220001C32CB69B3B9D0F80C329343C0F80C32EE
:102230008C894B6864F31F434C6900EBC404C4F8F9
:1022400040320C890B6864F31F434C6900EBC404F3
:10225000C4F84432CB69012B16D1D0F80C321343A9
:10226000C0F80C320C884B6864F31F434C6900EBD8
:10227000C404C4F840320C89CB6864F31F434C6932
:1022800000EBC404C4F844328B69002BD0F804324C
:102290000ED01343C0F804320B69002BD0F814326F
:1022A00008D01343C0F81432096A012904D008E0A9
:1022B0009343EFE79343F5E7D0F81C121143C0F8BE
:1022C0001C12D0F8001221F00101C0F80012002009
:1022D00010BD000000640040704770B590F82040C9
:1022E000012C05D0022C03D0416A41F4802128E062
:1022F000046809B32469A40720D04FF4D874056892
:1023000004EB01142D5915F00405956005682D594D
:102310001AD0ED08556005682C5904F00204D46009
:102320004FF4DA74056804EB01142E5906F00F0619
:10233000082E0CD308250DE0E468DCE7416A41F47F
:1023400000114162012070BD6D0D1560E3E72D594C
:1023500005F00F05156105682D59C5F30725956131
:1023600005682C59240C54614FF4DC72046802EBAC
:102370000112A4581C700468A458240A5C700468F4
:10238000A458240C9C700468A258120EDA704FF402
:10239000DE72046802EB0112A4581C710468A45890
:1023A000240A5C710468A458240C9C710468A25827
:1023B000120EDA71006829B1016941F02001016152
:1023C000002070BDC16841F02001C160F8E72DE92F
:1023D000F05F0546006800244669D0F804908768DD
:1023E000D0F80CB0D0F810A0D0F81880F10748D081
:1023F000F90714D001218160B80703D5284600F001
:10240000A4FA0CE0780702D54FF4006407E038071F
:1024100002D54FF4805402E0284600F095FAF80502
:1024200016D529684FF480708860B80503D5284612
:1024300000F08DFA0CE0780502D544F4005407E072
:10244000380502D544F4804402E0284600F07EFAC4
:10245000F80316D529684FF480308860B80303D597
:10246000284600F076FA0CE0780302D544F40044E4
:1024700007E0380302D544F4803402E0284600F037
:1024800067FA300707D55FEACB6004D529681020CA
:1024900044F40074C86070074FF0080707D55FEA7E
:1024A0000B7004D52868C760284600F099F9B0077A
:1024B00006D52868C068800702D0284600F092F947
:1024C000700607D55FEACA6004D52968102044F475
:1024D00080640861B00607D55FEA0A7004D52868F1
:1024E0000761284600F000FAF00606D52868006962
:1024F000800702D0284600F0F8F9B00308D55FEA5B
:10250000C96005D5296810204860284600F0EEF91A
:10251000F00307D55FEA097004D5286847602846AC
:1025200000F018FA300446D55FEA497040D5F0054E
:1025300004D55FEAC87001D044F00104B00504D5A9
:102540005FEA887001D544F00204700504D55FEAA3
:10255000487001D544F00404300529D518F0700FF7
:1025600026D008F07000402815D006DC102809D0CD
:1025700020280AD0302816D10AE050280ED0602832
:1025800011D10EE044F008040DE044F010040AE01C
:1025900044F0200407E044F0400404E044F08004E8
:1025A00001E044F480742868816921F07001816140
:1025B000296804204860002C05D0686A20436862BE
:1025C0002846FFF789FEBDE8F09F70B5040003D0F0
:1025D00094F8200010B104E0012070BD204600F006
:1025E00081F82068016841F00101016000F08AFC77
:1025F0000546052604E000F085FC401B0A2811D89A
:1026000020684068C007F6D02068016821F0020108
:10261000016000F077FC05460BE000F073FC401B06
:102620000A2806D9606A40F40030606284F82060AD
:10263000D2E7206840688007EFD4207E0128206818
:1026400001683DD021F080010160607E0128206892
:10265000016838D021F040010160A07E0128206887
:10266000016833D021F020010160E07E012820685C
:1026700001682ED041F010010160207F0128206800
:10268000016829D021F008010160607F01282068DD
:10269000016824D021F004010160D4E9020108435B
:1026A000D4E90412114308436168491E08432168B4
:1026B000C86100206062012084F82000002070BD05
:1026C00041F08001C0E741F04001C5E741F0200141
:1026D000CAE721F01001CFE741F00801D4E741F04B
:1026E0000401D9E7F0B587B0044614216846FDF728
:1026F00035FF364B3648DFF8D0E01968D4F800C013
:10270000334A03250226092710300024491CF445CA
:1027100022D11960012907D1016841F000710160DF
:10272000006800F000700590106840F0080010602C
:102730001068CDE9005600F00800CDE90470694644
:102740002448CDE9024500F0DFFA002205211420DB
:1027500000F04AFC142032E0DFF87CE0F44530D190
:10276000D0F800C04CF0806CC0F800C0D0F800C0B9
:1027700001290CF0806CCDF814C0196007D10168F4
:1027800041F000710160006800F000700590106871
:1027900040F002001060106802AB00F002000590EB
:1027A0006020CDE9000683E8B00069460B4800F0E0
:1027B000ABFA00220521402000F016FC402000F07A
:1027C00005FC07B0F0BD0000006400400C000020D4
:1027D00030380240000C0240006800400004024013
:1027E0007047000070B5064600683A493A4D3B4CC8
:1027F00096B088423BD10CAB0EAA00213046FFF7C1
:102800006CFD0E9840F20322A0F2032190420DD0FD
:1028100006DCA0F50070013808D0012827D105E0BA
:10282000012903D0B1F5807F21D11BE00E98401E15
:10283000C0B2287000EB400004EBC00134F8302037
:102840000A81BDF8302052BA24F83020BDF8320099
:1028500040BA4880BDF8340040BA88809DF8360000
:10286000887104E01E490CAA081FFFF7FFFA1D49F2
:10287000306888422BD103AB05AA00213046FFF710
:102880002CFD0598A0F50070053805D0012803D06F
:10289000022801D003281AD10598401EC0B26870E2
:1028A00000EB400104EBC10034F831200281BDF897
:1028B0000C2052BA24F83120BDF80E1049BA4180DC
:1028C000BDF8101049BA81809DF81210817116B0C0
:1028D00070BD00000064004094000020AC43002064
:1028E000584900200068004070477047704700005A
:1028F00070B5044690F82000012804D0606A40F4C6
:102900000020606218E0022084F82000206801683E
:1029100021F00101016000F0F5FA05460EE000BF6C
:1029200000F0F0FA401B0A2808D9606A40F4003031
:102930006062052084F82000012070BD2068406896
:10294000C007EDD1606270BD704770477047704737
:102950007047704770472DE9F0410446876D00F0DD
:10296000D1FA064694F835000025022806D08020CA
:10297000606584F834500120BDE8F081206801686A
:1029800021F0160101602068416921F08001416158
:10299000206C08B9A06C20B12068016821F0080102
:1029A00001602068016821F0010101600CE000F085
:1029B000A9FA801B052807D920206065032084F828
:1029C000350084F83450D7E720680068C007EED19E
:1029D00094F85C103F208840B860012084F83500EE
:1029E00084F834500020C7E790F83510022903D04E
:1029F0008021416501207047052180F8351000686D
:102A0000016821F001010160002070472DE9F843C1
:102A100004464FF00009CDF8009063484FF416517A
:102A2000A56D0068B0FBF1F72E6894F85C100820E3
:102A300000FA01F131420FD021680A6852070BD524
:102A40000A6822F004020A6094F85C108840A860CA
:102A5000606D40F00100606594F85C104FF0010873
:102A600008FA01F0304208D021684969090604D506
:102A7000A860606D40F00200606594F85C1004206E
:102A80008840304208D021680968890704D5A860C9
:102A9000606D40F00400606594F85C101020884080
:102AA000304218D021680968090714D5A860206849
:102AB0000168490304D50068000308D5A16C07E04C
:102AC0000168C90503D4016821F008010160216C87
:102AD00009B12046884794F85C1020208840304295
:102AE00031D021680968C9062DD5A86094F8350051
:102AF00005282068016806D0490347D5006800030F
:102B00001DD4616C1CE021F0160101602068416950
:102B100021F080014161206C08B9A06C20B12068CF
:102B2000016821F00801016094F85C103F208840A2
:102B3000A86084F8358084F83490216D1FE0E16B43
:102B400009B120468847606D00282BD0606DC00712
:102B500014D0052084F835002068016821F00101B7
:102B600001600098401C0090B84203D820680068BB
:102B7000C007F6D184F8358084F83490E16C0029E0
:102B800010D001B02046BDE8F04308470168C905F0
:102B9000D5D4016821F01001016084F8358084F8F3
:102BA0003490CCE7BDE8F8831C0000202DE9F0410B
:102BB000044600F0A7F906465CB1022084F835000F
:102BC000002584F834502068016821F0010101607B
:102BD0000DE00120BDE8F08100F094F9801B05288C
:102BE00005D920206065032084F83500F2E72068CD
:102BF0000068C007F0D12268116820480140D4E97C
:102C000001031843D4E90336334318436369184377
:102C1000A3691843E3691843236A18430843616AA8
:102C2000042903D1D4E90B13194308431060206829
:102C30004069666A20F0070130460E4301270428E8
:102C40000CD1A06A0643E06A40B12046FFF7F6F9CE
:102C500020B14020606584F83570BAE7206846618D
:102C60002046FFF7D7F994F85C203F21914081601E
:102C7000656584F835700020ACE700003F8010F0F7
:102C80002DE9F0410446866D90F8340000250128B6
:102C90000DD0012084F8340094F835700020012F05
:102CA00007D084F8340002252846BDE8F0810220D0
:102CB000FBE7022784F8357060652046FFF7E8F9E6
:102CC00094F85C103F208840B0602068016841F0B3
:102CD00016010160206C20B12068016841F00801F4
:102CE00001602068016841F001010160DCE7704784
:102CF000044910B50A68024202D00860FFF7F7FFE6
:102D000010BD0000143C01402DE9F84FDFF8BCA1D4
:102D10000022012503264FF00F090AF1040BAAF146
:102D2000040E00BF0B6805FA02F42340A34270D1E1
:102D30000F7907F00307012F01D0022F16D1876802
:102D40004FEA420806FA08FC27EA0C07D1F80CC043
:102D50000CFA08FC4CEA070CC0F808C04768A74307
:102D60000C79C4F3001494403C4344600C79E44370
:102D7000A4070AD0C4684FEA420C06FA0CF7BC4319
:102D80008F6807FA0CF72743C7600C7904F0030437
:102D9000022C12D1D40800EB840CDCF82040570739
:102DA000FF0E09FA07F824EA0804D1F8108008FA9F
:102DB00007F848EA0408CCF8208004684FEA420C7F
:102DC00006FA0CF7BC430F7907F0030707FA0CF774
:102DD000274307604C6814F4403F70D03C4C276890
:102DE00047F480472760246822F0030704F48044F6
:102DF0000094384C07EB040CDCF8084897074FEABE
:102E0000177809FA08F7BC43334FB84202D10027BC
:102E100024E054E0314FB84201D101271EE0304F89
:102E2000B84201D1022719E02E4FB84201D1032741
:102E300014E02D4FB84201D104270FE02B4FB842C8
:102E400001D105270AE02A4FB84201D1062705E043
:102E5000284FB84201D1072700E0082707FA08F7F2
:102E60002743CCF80878DAF800405746D1F804C078
:102E70009C435FEACC2C00D51C433C60DBF800404F
:102E80005F46D1F804C09C435FEA8C2C00D51C43FC
:102E90003C60DEF800407746D1F804C09C435FEA0E
:102EA0008C3C00D51C433C60084F083F3C68D1F87F
:102EB00004C09C435FEACC3C00D51C433C60521CE0
:102EC000102AFFF42FAFBDE8F88F0000083C014046
:102ED000443802400030014000000240000402403B
:102EE00000080240000C02400010024000140240A2
:102EF00000180240001C02400AB1816170470904B9
:102F0000FBE70000014880687047000010000020C7
:102F100002488168027811448160704710000020E7
:102F20000B4810B5016841F400710160016841F47B
:102F300080610160016841F480710160032000F04C
:102F400073F80F2000F006F800F024F8002010BD00
:102F5000003C024070B50D4D04464FF47A7128785C
:102F6000B1FBF0F00A490968B1FBF0F000F010FB8A
:102F700048B9102C07D200222146501E00F034F828
:102F800000206C6070BD012070BD000010000020AA
:102F90001C0000200C4882B0016841F480410160AF
:102FA000006800F4804000900748001F016841F06D
:102FB000805101600068002200F0805000900F21D5
:102FC000901E02B000F010B844380240002809DB1F
:102FD00000F01F02012191404009800000F1E02033
:102FE000C0F8001170470000F0B40E4B1B680C468F
:102FF000C3F30223C3F10705042D00D90425191DCD
:10300000072901D2002300E0DB1E012606FA05F1A4
:10301000491E214099409E40761E16403143F0BC27
:1030200001F0EBBD0CED00E0064900F00702086876
:103030004FF6FF03184040EA0220034A104308609D
:10304000704700000CED00E00000FA052DE9F047A4
:103050000E46050065D0DFF81481D8F80000F7B2FD
:1030600000F00700B04207D288F80070D8F80000DE
:1030700000F00700B04254D128683D4C810712D5BA
:10308000400703D5206840F4E0502060287800070E
:1030900003D5206840F4604020602068A96820F0D3
:1030A000F000084320602878C0072DD030496868B8
:1030B0000839012812D0022813D0032811D009683A
:1030C000890700292DDA216821F0030101432160DD
:1030D000FFF718FF814641F2883A0EE0096889033C
:1030E000EFE709688901ECE7FFF70CFFA0EB0901A6
:1030F000514502D90320BDE8F0872068696800F0D7
:103100000C00B0EB810FEFD1D8F80010404601F071
:103110000701B14207D90770006800F00700B0420C
:1031200001D00120E7E72878400705D52068E96845
:1031300020F4E050084320602878000706D5206876
:10314000296920F4604040EAC100206000F038F8AE
:103150002168084AC1F30311515CC8400649086060
:1031600006480068FFF7F6FE0020C4E7003C024076
:1031700008380240BC7800081C0000201400002021
:103180000448054900680968044AC1F38221515C7A
:10319000C84070471C00002008380240CC78000866
:1031A0000448054900680968044AC1F34231515C8A
:1031B000C84070471C00002008380240CC78000846
:1031C000154810B5006810F00C02144813D01449CB
:1031D000042A0FD0082A0ED10F4C241F226823681E
:1031E00002F03F025B0207D52068C0F38810A0FB05
:1031F000010106E0084610BD2168C1F38811A1FB5A
:1032000000010023FDF7E6F82168C1F30141491CE4
:103210004900B0FBF1F010BD083802400024F40072
:10322000001BB7002DE9F84F04006ED02078DFF8BE
:103230004C93C007A9F104054AD009F104000168C4
:10324000C1F38101012908D00068C0F38100022880
:103250000AD1D9F80000400206D52868800337D586
:1032600060680028E1D033E06068B0F5803F10D09E
:10327000B0F5A02F286810D020F48030286028688E
:1032800020F4802028606068A8B1FFF73BFE064666
:103290000DE0286840F48030F4E740F48020286096
:1032A000F7E700BFFFF72EFE801B642873D828685D
:1032B0008003F7D50CE0FFF725FE064605E000BFCA
:1032C000FFF720FE801B6428F0D828688003F7D41D
:1032D0002078DFF8AC8280074FF0000A3ED5A7487F
:1032E000001D016811F00C0F08D00068C0F38100C8
:1032F00002280BD1D9F80000400207D428688007C3
:1033000016D5E068012800D112E033E1E068B8B1D9
:103310000120C8F80000FFF7F5FD064605E000BFF4
:10332000FFF7F0FD801B0228C0D828688007F7D57A
:103330002868216920F0F80040EAC10028600DE00B
:10334000C8F800A0FFF7DEFD064604E0FFF7DAFD4F
:10335000801B02281FD828688007F7D42078000730
:1033600022D5864F87486169703771B101210160AC
:10337000FFF7C8FD064604E0FFF7C4FD801B0228E6
:1033800009D838688007F7D50EE0C0F800A0FFF72D
:10339000B9FD064605E082E0FFF7B4FD801B022878
:1033A0007DD838688007F7D42078400768D5DFF8E3
:1033B000CCB100270BF13C0BDBF80000C0000BD4B4
:1033C000DBF8001041F08051CBF80010DBF8000072
:1033D000012700F0805000906B4E3068C00510D47B
:1033E000306840F480703060FFF78CFD009005E09D
:1033F000FFF788FD0099401A022850D83068C005B0
:10340000F6D55E4EA0686C3601280FD005283068CE
:1034100010D020F001003060306820F004003060EF
:10342000A068B8B1FFF76EFD00900FE0306840F083
:103430000100F4E740F004003060F7E7FFF762FDB9
:103440000099411A41F28830814266D8306880077D
:10345000F4D50EE0FFF756FD009007E0FFF752FDB0
:103460000099411A41F28830814256D8306880076D
:10347000F4D42FB1DBF8001021F08051CBF800100C
:10348000A069C8B33D49091D0968C1F3810102293A
:103490004AD00228504607D0C8F8600000E03CE05F
:1034A000FFF730FD04463BE04746C8F86000FFF7F1
:1034B00029FD064605E000BFFFF724FD801B02281A
:1034C0002BD828688001F7D4D4E907010843A16A02
:1034D0002E4A490802EB0141626A41EA821108431F
:1034E00094F82C1040EA0161C9F8001001203866F8
:1034F000FFF708FD044606E03EE000BFFFF702FDCF
:10350000001B022809D828688001F7D534E000BFE5
:10351000FFF7F8FC001B022802D90320BDE8F88F52
:1035200028688001F4D427E00128F7D0D9F80000FA
:10353000E26900F4800191421CD1226A00F03F014F
:10354000914217D147F6C071626A0140B1EB821F08
:1035500010D1A26A4FF0FF3300F4403103EB520266
:10356000B1EB024F06D194F82C1000F07060B0EB74
:10357000016F01D00120D1E70020CFE704380240DD
:1035800000004742800E4742007000400000FFFFED
:1035900010B5401EB0F1807F01D3012010BD4FF067
:1035A000E02460610F21601701F027FB0020A0617B
:1035B00007202061002010BD70B590F83C20012A42
:1035C00032D0012480F83C40022280F83D2003687C
:1035D0005A689D6822F070060A6832435A60134B9D
:1035E00002689A4214D0B2F1804F11D0104B9A4227
:1035F0000ED0104B9A420BD00F4B9A4208D00F4B73
:103600009A4205D00E4B9A4202D00E4B9A4204D1F8
:10361000496825F080031943916080F83D400021FE
:1036200080F83C10084670BD022070BD00000140CB
:103630000004004000080040000C0040000401406D
:10364000004001400018004010B5040003D094F879
:103650003D0010B107E0012010BD002084F83C00BF
:10366000204600F01FF8022084F83D00211D20684C
:1036700000F0ACFF012084F8460084F83E0084F896
:103680003F0084F8400084F8410084F8420084F848
:10369000430084F8440084F8450084F83D0000208D
:1036A00010BD000008B500680649884208D10648E8
:1036B000016841F400310160006800F400300090BE
:1036C00008BD0000004401404438024010B586B0F7
:1036D000044614216846FCF741FF2368174C00217B
:1036E00017480222A34210D1036843F00803036085
:1036F000006800F008000590D0020090CDE901219B
:10370000CDE9031269460F4813E00F4CA34212D1D2
:10371000036843F020030360006800F02000059078
:1037200040200090CDE901210320CDE90310694636
:103730000648FFF7E9FA06B010BD00000008004097
:1037400030380240000C02400044014000140240A6
:1037500070B5044690F83C0000260D4601280FD0B5
:10376000012084F83C006AB1042A1DD0082A2FD019
:103770000C2A3FD00126002084F83C00304670BD62
:10378000022070BD206800F08DFF2068816941F043
:10379000080181612068816921F00401816120684C
:1037A00081692A69114311E0206800F0ABFF2068AD
:1037B000816941F4006181612068816921F480613F
:1037C0008161206881692A6941EA02218161D2E729
:1037D000206800F0CDFF2068C16941F00801C16197
:1037E0002068C16921F00401C1612068C1692A69AA
:1037F000114311E0206800F0EFFF2068C16941F437
:103800000061C1612068C16921F48061C1612068E3
:10381000C1692A6941EA0221C161ACE710B504001F
:1038200003D094F83D0010B107E0012010BD002046
:1038300084F83C00204600F01FF8022084F83D0088
:10384000211D206800F0C2FE012084F8460084F8A3
:103850003E0084F83F0084F8400084F8410084F87A
:10386000420084F8430084F8440084F8450084F85A
:103870003D00002010BD000008B5006806498842E0
:1038800008D10648016841F004010160006800F0B9
:103890000400009008BD00000008004040380240CD
:1038A00070477047F8B5016804460868CA684B69F4
:1038B00010F00F0F4FF0000559D003F0010602F48D
:1038C0009077374365D0C10705D0D10503D5616C2A
:1038D00041F001016164410705D5D90703D0616C4E
:1038E00041F002016164810705D5D90703D0616CFD
:1038F00041F004016164010707D502F02001314362
:1039000003D0616C41F008016164616C00293AD018
:10391000800604D5900602D5204601F00DF82068F7
:103920004069616CC0F38010090700D460B3204681
:1039300000F0CDFF20684069400621D52068143092
:1039400050E8001F21F0400140E80012002AF5D1A4
:10395000E06BA8B16E490165E06BFFF745F8002800
:1039600011D0E06B016D01B0BDE8F040084783065F
:103970000FD593060DD52046BDE8F84000F0DCBF1A
:103980002046FFF78EFFF8BD2046FFF78AFF6564EB
:10399000F8BD266B2023012E7DD1C6067BD5D60629
:1039A00079D508684868009048694FF002064006DB
:1039B00041D5E16B086840680004000CE8D0A28D96
:1039C0008242E5D9E085C869B0F5807F2DD02068B6
:1039D0000C3050E8001F21F4807140E80012002AEA
:1039E000F5D12068143050E8001F21F0010140E8B3
:1039F0000012002AF5D12068143050E8001F21F091
:103A0000400140E80012002AF5D184F842302563D5
:103A100020680C3050E8001F21F0100140E800122F
:103A2000002AF5D1E06BFEF796FF6663A08DE18D6D
:103A3000401A81B22AE0A08DE18D401A81B2E08D5A
:103A40000028A5D00029A3D022680C3252E8000F2C
:103A500020F4907042E80007002FF5D12068143060
:103A600050E8002F22F0010240E80027002FF5D196
:103A700084F84230256320680C3050E8002F22F093
:103A8000100240E80023002BF5D166632046FFF7C3
:103A900007FFF8BDFFE705062BD5150629D594F8D5
:103AA00041002128F5D1A068B0F5805F01D12069DF
:103AB000B0B1206A411C2162216800784860E08C26
:103AC000401E0004000CE084E3D12068C16821F0AE
:103AD0008001C1602068C16841F04001C160D8E741
:103AE000206A0088C0F308004860206A801C2062B9
:103AF000E5E74006CDD55006CBD5CA68204622F072
:103B00004002CA6084F8413000F02AF9C1E70000A1
:103B10002948000870B5040004D094F8410000253D
:103B200010B106E0012070BD84F84050204600F03E
:103B300023F8242084F841002068C16821F4005152
:103B4000C160204600F05AFF2068016921F49041CD
:103B500001612068416921F02A0141612068C16842
:103B600041F40051C1606564202084F8410084F86C
:103B700042006563002070BD2DE9F04F87B0064616
:103B800014216846FCF7EAFC4D4B316800244D488F
:103B90000225032207274FF000694FF4806A4FF493
:103BA000403B99424AD1474914310B6843F0100316
:103BB0000B60096801F010010591016841F00201F4
:103BC0000160016801F002010591016841F0010105
:103BD00001600068CDE9024200F0010005908020FC
:103BE000CDE900059046694604973748FFF78CF801
:103BF0002802CDE90005CDE902486946049733481B
:103C0000FFF782F8334D3248E5E802094020A5E885
:103C10001104304845F81449AC61C5E9074B6C62A2
:103C2000FEF7C4FF08B1FEF75FFAB5630022052175
:103C30002520AE63FFF7D8F925203BE0264B9942BB
:103C40003AD1204910310B6843F480230B60096896
:103C500001F480210591016841F0040101600068D0
:103C6000CDE9024200F0040005904FF44060CDE938
:103C70000005694604971948FFF746F8154D18489E
:103C800060352860C5E90194C5E9034A80156C6177
:103C9000C5E90640C5E908B42846FEF787FF08B124
:103CA000FEF722FAF563002205212720AE63FFF715
:103CB0009BF92720FFF78AF907B0BDE8F08F0000D5
:103CC0000010014030380240000402400000024071
:103CD000B86402407C040020004800400008024014
:103CE000286002407047000070B5044690F841001B
:103CF000202801D0022070BD49B342B32162A284C2
:103D0000E28400206064212384F84130A56B114BCC
:103D1000EB63A56B104B2B64A56B104BEB64A36B93
:103D20001865256813462A1DA06BFEF7A9FF2168B8
:103D30006FF0400008602068143050E8001F41F028
:103D4000800140E80012002AF5D1002070BD01205A
:103D500070BD000083480008C548000839480008C5
:103D600070477047FEE710B504000ED0D4ED150A79
:103D700094ED140A201D00F0B5FA84ED170ABDEE8B
:103D8000C00A10EE100AA4F8600010BD10B50400BF
:103D90002DED028BB0EE418A3ED084ED040AC4EDD5
:103DA000030A30EEC00A9FED1E1ADFED1E0A01F075
:103DB000E9FC84ED050AD4ED000A04F1240060EE6C
:103DC000800AC4ED080AD4ED090A94ED011A41EE07
:103DD000000AC4ED090A94ED020A20EE080A84EDF7
:103DE0000A0A94ED070A01F0FEFB94ED080AD4EDEF
:103DF000090A04F12C0030EE200AD4ED0A0A30EE54
:103E0000200A84ED0B0A94ED060A01F0ECFB94ED18
:103E10000B0ABDEC028B10BD9FED030AF9E7000011
:103E2000DB0F4940DB0F49C00000000000280FD025
:103E30009FED080A80ED040A80ED030A80ED050A73
:103E400080ED0A0A80ED090A80ED080A80ED0B0A70
:103E5000704700000000000000280BD080EC031A1F
:103E60009FED051A80ED051A80ED041AC0ED070AD2
:103E700080ED060A704700000000000010B5040045
:103E80001AD094ED241AD4ED230A94ED2B0A201DA8
:103E9000FFF77CFF84ED250AF0EE400A94ED240A3A
:103EA00004F1340000F01EFA84ED280ABDEEC00AC9
:103EB00010EE100AA4F8A40010BD00000F4810B5C1
:103EC0000D4901600321416000214FF410228160FF
:103ED000C0E903124FF40012426101764176817607
:103EE000C17601774177FEF770FB002803D0BDE86B
:103EF0001040FEF7F9B810BD006400400C0300202C
:103F00000F4810B50D4901600321416000214FF4B5
:103F100010228160C0E903124FF400124261017661
:103F200041768176C17601774177FEF74EFB002816
:103F300003D0BDE81040FEF7D7B810BD00680040C0
:103F400034030020114808B5016841F400110160F4
:103F5000016801F400110091016841F480010160E1
:103F60000068002200F48000009005210C20FFF77B
:103F70003BF80C20FFF72AF8002205214620FFF726
:103F800033F8BDE808404620FFF720B8303802403B
:103F900010B596B01C2211496846FCF7A5FA00211D
:103FA000684601F025FF0E4C0C491C2220601C3194
:103FB00007A8FCF799FA002107A801F019FF0749A3
:103FC00060601C2238310EA8FCF78EFA00210EA882
:103FD00001F00EFFA06016B010BD00006078000870
:103FE000000000202DE9F04F87B014216846FCF74F
:103FF000B5FA63480025016841F0020101600168DB
:1040000001F002010591016841F0010101600168C0
:1040100001F001010591016841F0080101600168AA
:1040200001F008010591016841F004010160016897
:1040300001F004010591016841F08001016001680F
:1040400001F080010591016841F0400101600168C3
:1040500001F040010591016841F020010160006814
:10406000DFF8209100F02000059001224021484611
:10407000FEF742FF0122DFF810A1D602314650467A
:10408000FEF73AFFDFF804B1012210215846FEF78F
:1040900033FF012211463E48FEF72EFFF01000903C
:1040A00001A91220032781E8A10004200490694699
:1040B0005846FEF729FE01244020CDE90004029471
:1040C000694648460394FEF71FFE09204FF4041882
:1040D000CDE90008694602944846FEF715FE0096B1
:1040E000CDE90145694650460395FEF70DFE1020C7
:1040F000CDE900040226CDE9024669465846FEF79E
:1041000003FE3020CDE90008694602942148FEF7FD
:10411000FBFD8020CDE9000602950520CDE9037066
:1041200069465846FEF7F0FDCDE90246009469461F
:1041300017480194FEF7E8FD062100220846FEF725
:1041400053FF0620FEF742FF002205210920FEF75B
:104150004BFF0920FEF73AFF002205210A20FEF757
:1041600043FF0A20FEF732FF002205211720FEF749
:104170003BFF1720FEF72AFF07B0BDE8F08F0000D5
:104180003038024000180240001C0240000002408B
:10419000000402400008024010B588B01C216846A7
:1041A000FCF7DCF9144813490024C0E9001441F27B
:1041B0008731C0E9024104618461FFF745FA08B123
:1041C000FDF792FF0C48FFF729FB08B1FDF78CFFC4
:1041D0006020CDE900040294002269460648049458
:1041E000FFF7B6FA08B1FDF77FFF0348FFF76EFA55
:1041F00008B010BD00440140A403002010B58AB0EF
:10420000002407941C2168460894FCF7A7F9164877
:104210001449C0E900144FF6FF71C0E9024104617E
:104220008461FFF7FBFA08B1FDF75EFF079407A969
:104230000D480894FFF7C0F908B1FDF755FF60205D
:10424000CDE9000402940022694607480494FFF770
:104250007FFA08B1FDF748FF0348FFF737FA0AB0C5
:1042600010BD0000000800405C0300200C4810B5A1
:104270000A4901604FF4E1314160002181600C2264
:10428000C160C0E904128161C161FFF743FC0028ED
:1042900003D0BDE81040FDF727BF10BD001001405E
:1042A000EC0300200C4810B50A4901600B4941603D
:1042B000002181600C22C160C0E904128161C161EA
:1042C000FFF728FC002803D0BDE81040FDF70CBF25
:1042D00010BD00000048004034040020A08601000A
:1042E000FEE7FEE7A0B1D0ED101AC0ED111A90ED77
:1042F0000F1A80ED101AC0ED060A80ED070A30EEA5
:10430000C00A80ED0F0A017829B101293BD078E07D
:104310009FED3D0A7047D0ED010A60EE801AC0EDB6
:10432000091AD0ED0A0A90ED022A42EE000A30EE98
:10433000410AC0ED0A0A90ED0D2A80ED0E2A90ED9B
:104340000C2A80ED0D2A80ED0C0A90ED031A21EE67
:10435000001A80ED0B1A90ED050AF4EEC00AF1EE9A
:1043600010FA09DCB1EE400AF4EEC00AF1EE10FAE0
:1043700002D390ED0A0A01E080ED0A0A31EE800ACC
:1043800030EE010A2BE070EE410A90ED012A20EE9A
:10439000822A80ED092AD0ED020A60EE800AC0ED83
:1043A0000A0AD0ED0D2A72EE200AC0ED0E2AD0EDD9
:1043B0000C2AC0ED0D2AF0EE002A01EE620A30EE62
:1043C000210A80ED0C0A90ED031A21EE000A80ED1F
:1043D0000B0A30EE800AD0ED080A30EE200A80ED9C
:1043E000080AD0ED040AB4EEE00AF1EE10FA06DC99
:1043F000F1EE600AB4EEE00AF1EE10FA01D2C0ED7F
:10440000080A90ED080A704700000000002819D043
:104410009FED0D0A80ED110A80ED100A80ED0F0A64
:1044200080ED0E0A80ED0D0A80ED0C0A80ED0B0A7E
:1044300080ED0A0A80ED090A80ED080A80ED060A7F
:1044400080ED070A7047000000000000002828D017
:10445000002A26D0017092ED001A80ED011A92ED2B
:10446000011A80ED021A92ED021A80ED031A80ED16
:10447000040A9FED0C0AC0ED050A80ED0E0A80EDDE
:104480000D0A80ED0C0A80ED080A80ED0B0A80ED24
:104490000A0A80ED090A80ED110A80ED100A80ED0C
:1044A0000F0A70470000000030B5144B1C686569A6
:1044B00045F0400565611B68DC6844F01004DC6071
:1044C0000F4B1C68256825F0010525601C682568D0
:1044D000ED07F7D11D680B4CAC601C68E0601868F4
:1044E0000161186842601868016841F48021016028
:1044F0001868016841F00101016030BD34040020FA
:10450000DC04002004480040012001F065FCFBE7CA
:1045100010B5FEF7FDFC02F08DFA012803D0BDE8CE
:10452000104002F019BA10BD30B593B03021684682
:10453000FCF714F814210CA8FCF710F81D4800250E
:10454000016841F080510160006800F080501190D6
:104550001948016841F4804101600068022400F4B8
:104560008040119001200090000401908001CDE96D
:10457000064006200890A820CDE9090404200B90ED
:104580006846FEF74FFE08B172B6FEE70CA90F2091
:1045900081E831004FF4A0500F904FF480501090FC
:1045A00005210CA8FEF752FD002801D072B6FEE7E7
:1045B00013B030BD4038024000700040024801682E
:1045C00041F470010160704788ED00E0F0B50268C9
:1045D000294C2A4D2A4E2B4F2B4B4FF0804CA0429A
:1045E00009D0604507D0A84205D0B04203D0B842F8
:1045F00001D0984204D122F0700E4A6842EA0E02BD
:10460000A0421BD0604519D0A84217D0B04215D0A7
:10461000B84213D0984211D01C4DA8420ED01C4D68
:10462000A8420BD01B4DA84208D01B4DA84205D074
:104630001A4DA84202D01A4DA84203D122F4407567
:10464000CA682A434D6922F080022A4302608A68C0
:10465000C2620A688262A04201D0984201D109690F
:104660000163012141610169C90703D0016921F09A
:1046700001010161F0BD00000000014000040040A4
:1046800000080040000C00400004014000400140D0
:10469000004401400048014000180040001C004058
:1046A00000200040F0B5036A026A22F001020262B3
:1046B00042688469124E24F073050C682C4323F081
:1046C00002058B682B430D4DA84201D0B04205D1A5
:1046D00023F00807CB683B4323F00403A84201D032
:1046E000B04205D14D6922F4407215438A692A43CC
:1046F00042608461496841630362F0BD000001408B
:1047000000040140F0B5026A036A23F0100303625B
:10471000436884690D6824F4E64444EA05248D68FE
:1047200022F0200242EA05120F4D104EA84201D09D
:10473000B04206D1CF6822F0800242EA071222F08E
:104740004002A84201D0B04207D14D6923F4406332
:1047500043EA85038D6943EA8503436084614968C0
:1047600081630262F0BD00000000014000040140CE
:10477000F0B5026A036A23F4807303624368C46974
:1047800022F4007224F073050C68124E2C438D68DD
:1047900042EA05220E4DA84201D0B04206D1CF68B0
:1047A00022F4006242EA072222F48062A84201D089
:1047B000B04207D14D6923F4405343EA05138D6994
:1047C00043EA05134360C4614968C1630262F0BDF6
:1047D000000001400004014030B5046A026A22F47E
:1047E000805202624268C3690D6823F4E64343EADB
:1047F00005238D6824F4005444EA0534084DA8428A
:1048000002D0084DA84204D14D6922F4804242EA08
:1048100085124260C36149680164046230BD0000D2
:10482000000001400004014010B5806B0021C185EB
:10483000C184FFF736F810BD70B5846B20684069FD
:1048400094F84110C0F3C0100025212904D118B1FB
:10485000E584204600F062F82068406994F8421030
:10486000C0F38010222904D118B1E585204600F05C
:104870002EF8606C40F0100060642046FFF711F8DD
:1048800070BD10B50146806B09680968C90516D46A
:104890000021C1840168143151E8002F22F0800208
:1048A00041E80023002BF5D101680C3151E8002FBD
:1048B00042F0400241E80023002BF5D110BDFFF784
:1048C0004FFA10BD10B5806BFFF74BFA10BD0168B1
:1048D0000C3151E8002F22F4907241E80023002BA4
:1048E000F5D10168143151E8002F22F0010241E8AE
:1048F0000023002BF5D1016B012909D101680C318E
:1049000051E8002F22F0100241E80023002BF5D1DE
:10491000202180F8421000210163704701680C31AA
:1049200051E8002F22F0C00241E80023002BF5D10E
:10493000202180F84110704708B590F842102229D4
:1049400001D0022008BD82684FF480539A4201D101
:10495000016921B1816A9A421BD04AB10AE002681A
:10496000816A5268C2F308020A80816A891C08E0E1
:10497000026972B10268526802F07F020A70816AAD
:10498000491C8162C18D491E0904090CC18503D0EF
:104990001BE002685268F1E70168CA6822F0200251
:1049A000CA600168CA6822F48072CA6001684A69F4
:1049B00022F001024A61202180F842100021416367
:1049C000026B012A03D0FFF78DF9002008BD0163B7
:1049D00001680C3151E8002F22F0100241E8002359
:1049E000002BF5D101680A68D20602D50A68496829
:1049F0000091818DFEF754FFE7E7000070B5044693
:104A000000680169E26821F44051114301612169A4
:104A1000A068E26908436169114308432168CA68D4
:104A200049F20C639A430243CA6020684169A26953
:104A300021F440711143416131492068884202D01C
:104A40003049884202D1FEF7ABFB01E0FEF798FB4C
:104A5000E2690023192164253226B2F5004F62680D
:104A600028D0A0FB0101930F9200FBF7B3FC014695
:104A7000B0FBF5F06FF01802504301EB800006EB3D
:104A80000010B0FBF5F000F0F002B1FBF5F002EB26
:104A90000012B1FBF5F06FF01803584301EB8000F2
:104AA00006EB0010B0FBF5F000F00F002168104499
:104AB000886070BDA0FB010192185B41FBF78AFC86
:104AC0000146B0FBF5F00201B1FBF5F06FF0180301
:104AD000584301EB800006EBC000B0FBF5F000F09E
:104AE000F80002EB4002B1FBF5F0584301EB800007
:104AF00006EBC000B0FBF5F000F00700D6E70000C1
:104B000000100140001401400148FEF7CBBE000038
:104B1000EC030020264818B400680168890604D513
:104B200001684068009018BC704722490968C906AE
:104B3000F9D501684068204A0090106801684FF07C
:104B400024030C031D49046824F00104046016D4F6
:104B500010684468C4F12404A4B20C804360106857
:104B6000016841F4002101601068016841F0010111
:104B70000160122CD7D1124901F1160015E014681A
:104B80006068C0F1240080B2088063600D498B6AC0
:104B900023F400238B6211680A6842F001020A6064
:104BA0001228C0D1064901F13A0018BC01F0FEBB41
:104BB0003404002000480040DC040020B60000203F
:104BC0006C49002000600240FEE703B401984100F8
:104BD000009850EAC12018BF04204A0D18BF40F0C9
:104BE000010040F2FF72B2EB515F08BF40F00200DB
:104BF000012808BF052002B070470907090E0028E8
:104C000004DB00F1E02080F80014704700F00F0092
:104C100000F1E02080F8141D704700000000000043
:104C200070B59B482DED020B2DED068B079D25F0F1
:104C30000044A04218DC9748844202DC0AD106985E
:104C400040B19DED060BBDEC068B02B0BDE8704097
:104C500000F08EBC002DCCBF9FED8F0B9FED900B15
:104C6000BDEC068B02B070BD8F48A04215DD8F48A9
:104C7000A042D8BF4FF0FF3458DD9DED060B51EC3C
:104C8000100BFFF7A2FF042808BF00F095FC9DED74
:104C9000060BBDEC068B02B070BD9DED060B51EC12
:104CA000100B00F043FDCDE9060181489FED828B9A
:104CB000A0423CDD8248A0421FDD00249FED82AB74
:104CC0009DED060B53EC1A2B51EC100B01F0F2FF8B
:104CD0009DED060B41EC190B53EC1A2B51EC100B0C
:104CE00002F048FA53EC182B02F050FC53EC192B4D
:104CF00002F094F8CDE9060149E09DED060B012490
:104D000053EC182B51EC100B01F0D4FF9DED060B6A
:104D100041EC190B53EC182B51EC100B02F036FC44
:104D200053EC192B02F07AF8CDE906012FE0684820
:104D3000A0421FDD02249FED689B9DED060B53EC06
:104D4000192B51EC100B02F015FA53EC182B01F053
:104D5000B1FF9DED060B41EC180B53EC192B51ECF8
:104D6000100B02F013FC53EC182B02F057F8CDE9AE
:104D700006010CE09DED060B032453EC102B9FED78
:104D8000580B51EC100B02F049F8CDE906019DEDEE
:104D9000060B53EC102B51EC100B02F0EBF941EC2D
:104DA000180B53EC182B02F0E5F941EC190B4E48A7
:104DB0000621B0EE490AF0EE690A784400F05CFB87
:104DC00053EC182B51EC100B02F0D4F941EC180BFA
:104DD0004648B0EE490AF0EE690A0521784400F031
:104DE0004BFB53EC192B51EC100B02F0C3F941ECC7
:104DF000100B51EC180B53EC102B002C0EDA01F0B9
:104E000059FF9DED061B53EC112B02F0B3F99DEDFC
:104E1000061B53EC112B02F0E1FA35E001F04AFFDA
:104E20009DED061B53EC112B02F0A4F941EC100B85
:104E30002F48784400EBC40090ED001B51EC100BA0
:104E400053EC112B02F0A2FB9DED061B53EC112B32
:104E500002F09CFB41EC100B2648784400EBC400A8
:104E600090ED001B51EC100B53EC112B02F0B6FA35
:104E700041EC100B002DA2BFBDEC068B02B070BD43
:104E800051EC100B01F0D8FE41EC100B01E70000D3
:104E9000000010440000F07F182D4454FB21F93F1E
:104EA000182D4454FB21F9BF0000DC3F0000203ED8
:104EB0000000F33F00000000000000000000F03F91
:104EC0000000E63F0000000000000000000000407D
:104ED0000080034000000000000000000000F83FD8
:104EE000000000000000F0BF9A2B0000502B0000D3
:104EF000DA2A0000922A000070B56B4E2DED040BEB
:104F00002DED028B82B0DDF81CC0DDE905235C428B
:104F10002CF000411C4341EAD474049D22F000406F
:104F2000B44205D86C422C4340EAD474B4420BD945
:104F30009DED061B9DED040B02B0BDEC028B04B091
:104F4000BDE8704000F01EBBACF14054A4F17F649A
:104F50001C430BD0022404EAAC7444EAD274054327
:104F60009FED538B9FED542B07D015E09DED040B67
:104F700051EC100B00F048FB42E0002C11BF012C5B
:104F80009DED040B02B0BDEC028B04BF04B070BDFC
:104F9000022C38D0032C3BD00B439FED491B9FEDD7
:104FA0004A0B0AD0B14218D1B04209D121F0804158
:104FB00020F08040079105900FE0002A15DA10E0FC
:104FC000434B7B44002C08BF93ED000B0DD0012C0C
:104FD00010D0022C17D0032C1AD0B0421DD1002AB9
:104FE00003DAB0EE410AF0EE610A02B0BDEC028BCA
:104FF00004B070BD93ED000B51EC100B01F01CFEE2
:1050000041EC100BF1E7B0EE480AF0EE680AECE76D
:10501000B0EE420AF0EE620AE7E7401A00153C28BB
:10502000C8BF8DED000B19DCBCF1000FBEBF10F145
:105030003C0F9FED290B8DED000B0FDB9DED060B5B
:1050400053EC102B9DED040B51EC100B01F0E6FE20
:1050500000F06CFB00F0D8FACDE90001002C08BF8D
:105060009DED000BC1D0012C10D0022C9FED1C0B2C
:1050700053EC102B9DED000B51EC100B0DD002F0FA
:1050800085FA53EC182B02F081FAB9E7019880F009
:10509000004001909DED000BA7E702F077FA53EC7A
:1050A000182B02F09BF9ABE70000F07F0000000036
:1050B000182D4454FB210940182D4454FB2109C0EC
:1050C000182D4454FB21F9BF182D4454FB21F93FFE
:1050D0000A2A00000000000000000000000000009C
:1050E000075C143326A6A13C2DED020B019820F09D
:1050F000004001909DED000B02B0704700000000E1
:1051000070B52DED040B2DED048B8CB09DED100BC7
:105110008DED000B9DED120B8DED020B119820F023
:105120000045139820F00044AC420ADD9DED120BBF
:1051300028468DED000B9DED100B25468DED020BE5
:105140000446281B01950394B0F1707F10DD9DED9E
:10515000020B53EC102B9DED000B51EC100B01F0EA
:10516000A9FD41EC100B0CB0BDEC048B04B070BD7C
:10517000B748002685423EDDB648A84233DC9DEDA7
:10518000021B9DED000B00F0FDF98DED040B009866
:10519000002818BF012000EB4501AF4811F5001FA2
:1051A00001D98542DFDB0299002918BF012101EBFB
:1051B000440111F5001F01D98442D4DB0099C5F3E5
:1051C0001300084304BF9DED000B8DED040B84F02C
:1051D0007F60029980F0E040084304BF9DED020B20
:1051E0008DED040BBFE7A5F11655A4F116544FF44D
:1051F0001676019503949FED9A8BB4F10C5F32DA29
:10520000B4F5801F27DA10EE100A204308BF9DED89
:10521000000BA8D08DED0A8B93480B909DED0A0BE7
:1052200053EC102B9DED020B51EC100B01F0A2FF83
:10523000CDE902019DED0A0B53EC102B9DED000B07
:1052400051EC100B01F096FFCDE900010D46A6F2DE
:10525000FE36039C07E005F1165504F11654A6F539
:105260001676019503949DED020B53EC102B9DEDEA
:10527000000B51EC100B02F089F9CDE904019DED12
:10528000020B53EC102B9DED040B51EC100B02F0B4
:105290006FF841D28DED0A8B0B959DED0A0B53EC07
:1052A000102B9DED000B51EC100B02F06FF99DEDF2
:1052B0000A0B41EC180B53EC102B9DED000B51EC3D
:1052C000100B01F0F7FC53EC182B01F053FF9DED90
:1052D000020B41EC180B51EC100B01F0ADFC9DEDF5
:1052E000021B53EC112B01F045FF53EC182B02F07D
:1052F0004DF99DED0A0B41EC180B53EC102B51ECC2
:10530000100B01F037FF53EC182B02F03FF901F0BE
:10531000FBF8CDE9040161E09DED000B53EC102B8F
:1053200051EC100B01F0C6FCCDE900018DED068BB0
:1053300007949DED060B53EC102B9DED020B51ECE9
:10534000100B02F023F941EC190B8DED0A8B05F5DA
:1053500080100B909DED0A0B53EC102B9DED000B74
:1053600051EC100B02F012F99DED021B53EC112BC6
:1053700001F000FF9DED0A0B41EC180B53EC192BCB
:1053800051EC100B01F0F6FE53EC182B01F092FCDF
:105390009DED040B41EC180B51EC100B01F04CFC93
:1053A0009DED041B53EC112B01F0E4FE53EC182B84
:1053B00002F0ECF89DED060B41EC180B53EC102BB2
:1053C0009DED0A0B51EC100B01F0D4FE53EC182BA1
:1053D00002F0DCF801F098F8CDE90401002E08BFD6
:1053E0009DED040B3FF4BFAE06EB11509FED200B7B
:1053F00040F2FF718DED0A0B88420ADB0220FBF7B9
:10540000DCF80CB0BDEC048B04B0BDE8704000F0DB
:10541000C3B810EE900A00EB06500B909DED040B04
:1054200053EC102B9DED0A0B51EC100B01F0A2FE7A
:105430000D4645EC100B044651EC100BFFF7C5FB75
:10544000042808BF00F0B8F845EC104B8BE60000CC
:105450000000305F0000F07F0000F87F00000000D7
:1054600000000000000000000000D07F00000000ED
:10547000000000000000F03F70B504462DED028BE7
:105480004D1E00EBC500B0EE408AF0EE608A90ED54
:10549000000B35F0060017D053EC182B51EC100B15
:1054A00001F068FE41EC100B6D1E04EBC50090EDA1
:1054B000001B51EC100B53EC112B01F0FBFB41ECEA
:1054C000100B35F00600E7D1022D36D0042D1CD08C
:1054D000062D1CBFBDEC028B70BD53EC182B51EC9C
:1054E000100B01F047FE94ED0A1B53EC112B01F059
:1054F000E1FB53EC182B01F03DFE94ED081B53EC3F
:10550000112B01F0D7FB41EC100B53EC182B51EC95
:10551000100B01F02FFE94ED061B53EC112B01F044
:10552000C9FB53EC182B01F025FE94ED040B53EC52
:10553000102B01F0BFFB41EC100B53EC182B51EC7E
:10554000100B01F017FE94ED021B53EC112B01F030
:10555000B1FB53EC182B01F00DFE94ED001B53EC46
:10556000112B01F0A7FBBDEC028B41EC100B70BDC1
:1055700010B553EC102B51EC100B01F09BFB41ECE0
:10558000100B10BD10B553EC112B51EC100B01F0AA
:1055900091FB41EC100B10BD9FED050B10B553ECCA
:1055A000102B51EC100B01F0E5FD41EC100B10BD80
:1055B00000000000000000709FED050B10B553ECDB
:1055C000102B51EC100B01F0D5FD41EC100B10BD70
:1055D000000000000000001030380A2801D201202D
:1055E000704700207047D0ED000AF4EEC00AF1EEDB
:1055F00010FA06DCB1EE400AF4EEC00AF1EE10FA41
:1056000001D280ED000A704710B541EC100BFFF796
:1056100007FB51EC100B10BD00B58BB00020012131
:10562000CDE9060108910090019002900390059049
:10563000049069460C48FCF7C9FD0B48FDF758F982
:1056400002210948FCF752FD0E2009900590694699
:105650000648FCF7BBFD0548FDF74AF9022103485F
:10566000FCF744FD0BB000BD0C0300203403002008
:1056700086B0234800F082F9224CA07A01282DD16F
:10568000E07A0128F9D11E4800F00CF900F09EFAEA
:105690001B4800F0BFF81C48406802F061F8DFF8D2
:1056A000609007468846D9F8900002F059F8054600
:1056B0000E46D9F8B00002F053F841EC100B02A8E6
:1056C00053EC102B80E8E001B9F9A80000900FA17D
:1056D000154800F051FF012000F07EFBA07A03285E
:1056E000CBD1E07A0328C8D1054800F0DBF800F000
:1056F0002DFB034800F08EF8012000F06DFBBCE7A5
:10570000CC4400206C4900203449002025342E333D
:1057100066202C2564202C25342E3366202C25343D
:105720002E33660A00000000EC03002082B0CDE9B1
:10573000000121F0004001909DED000B02B051EC02
:10574000100B704700487047AC430020004870477A
:10575000C443002000487047DC43002000487047E5
:10576000F4430020004870470C4400200048704774
:1057700024440020004870473C4400200048704703
:1057800054440020B4EEE01AF1EE10FA0FD371EE9B
:10579000601AB4EEC10AF1EE10FA03DC08E000BFB3
:1057A00030EE610AB4EEC10AF1EE10FAF8DC70478F
:1057B000B4EEE00AF1EE10FA02D3704730EE210A9F
:1057C000B4EEE00AF1EE10FAF8D37047FDF7A8FB4B
:1057D000FEF7AAFEFEF706FCFEF7B4FBFEF76EFB33
:1057E000FEF78EFBFEF70AFDFEF75CFDFEF73EFDC1
:1057F000FEF7D2FCFFF710FF00F0D0FDFEF7C8FB6C
:1058000000F0F1FAFEE701460020842900D0C81C10
:105810007047000070B5040035D0201DFEF72EFB48
:1058200004F1B800FEF72AFB04F5B670FEF726FB7C
:1058300004F50870FEF722FB134DB5F9C432B5F933
:105840001022B5F95C11B5F9A800FCF757FB04F577
:105850003570FEF788FA04F54E70FEF784FA04F509
:105860006770FEF780FA04F58060FEF77CFAB5F900
:105870006034B5F9FC23B5F99813B5F93403BDE8E4
:105880007040FCF717BB70BDCC440020401A00EEFE
:10589000100ADFED030AB8EEC00A20EE200A7047B6
:1058A000DB0F493A10B5040067D06068B4F8801087
:1058B0000088FFF7EBFF84ED230A201D00F0F6FAC5
:1058C000D4F8B800B4F834110088FFF7DFFF84ED96
:1058D000500A04F1B80000F0E9FAD4F86C01B4F809
:1058E000E8110088FFF7D2FF84ED7D0A04F5B67059
:1058F00000F0DCFAD4F82002B4F89C120088FFF71C
:10590000C5FF84EDAA0A04F5087000F0CFFAD4F8B8
:10591000D402B0F9020000EE100AF8EEC01AC4ED8D
:10592000C91AD4F83803B0F9020000EE100AB8EE34
:10593000C01A84EDE21AD4F89C0331EE811AB0F952
:10594000020000EE100AF8EEC00AC4EDFB0AD4F81B
:10595000000471EE200A04F58064B0F9020000EE44
:10596000100AB8EEC00A84ED140A30EE800AF5EE93
:10597000000A20EE200A84ED190A10BD2DE9F04F2F
:1059800004462DED048B85B0FFF7ECFE6060FFF759
:10599000EDFEC4F8B800FFF7EDFEC4F86C01FFF7A8
:1059A000EDFEC4F82002FFF7CDFEC4F8D402FFF7E5
:1059B000CDFEC4F83803FFF7CDFEC4F89C03FFF713
:1059C000CDFEB1EE0C2A9FED798AF0EE481ADFED9C
:1059D000788AB0EE681A9FED779AF0EE490ADFED0B
:1059E000769AC4F8000404F10800B0EE690A049045
:1059F000FEF732FA04F13800F0EE490AB0EE690A17
:105A00006E4A00210390FEF721FD04F1BC00B1EEC7
:105A10000C2AF0EE481AB0EE681AF0EE490AB0EE21
:105A2000690A0290FEF718FA04F1EC00F0EE490A58
:105A3000B0EE690A614A00210190FEF707FD04F506
:105A4000B870B1EE0C2AF0EE481AB0EE681AF0EE1B
:105A5000490AB0EE690A0090FEF7FEF904F5D0702D
:105A6000F0EE490AB0EE690A544A00218346FEF777
:105A7000EDFC04F50970B1EE0C2AF0EE481AB0EE18
:105A8000681AF0EE490AB0EE690A8246FEF7E4F9B8
:105A900004F51570F0EE490AB0EE690A474A002194
:105AA0008146FEF7D3FC9FED468AF0EE480ADFED13
:105AB000458A424A04F53670B0EE680A0C3200217D
:105AC0008046FEF7C3FC3D4A04F54F70F0EE480AED
:105AD000B0EE680A0C3200210546FEF7B7FC374AE3
